{
  "contractName": "Adoption_F2",
  "abi": [
    {
      "constant": false,
      "inputs": [
        {
          "name": "petId",
          "type": "uint256"
        },
        {
          "name": "dest",
          "type": "address"
        }
      ],
      "name": "transferOwnership",
      "outputs": [
        {
          "name": "",
          "type": "address"
        }
      ],
      "payable": false,
      "stateMutability": "nonpayable",
      "type": "function",
      "signature": "0x29507f73"
    },
    {
      "constant": true,
      "inputs": [
        {
          "name": "",
          "type": "uint256"
        }
      ],
      "name": "petInfo",
      "outputs": [
        {
          "name": "picture",
          "type": "string"
        },
        {
          "name": "name",
          "type": "string"
        },
        {
          "name": "age",
          "type": "uint8"
        },
        {
          "name": "breed",
          "type": "string"
        },
        {
          "name": "location",
          "type": "string"
        }
      ],
      "payable": false,
      "stateMutability": "view",
      "type": "function",
      "signature": "0x3a497fdb"
    },
    {
      "constant": true,
      "inputs": [],
      "name": "getAdopters",
      "outputs": [
        {
          "name": "",
          "type": "address[16]"
        }
      ],
      "payable": false,
      "stateMutability": "view",
      "type": "function",
      "signature": "0x3de4eb17"
    },
    {
      "constant": true,
      "inputs": [
        {
          "name": "",
          "type": "uint256"
        }
      ],
      "name": "adopters",
      "outputs": [
        {
          "name": "",
          "type": "address"
        }
      ],
      "payable": false,
      "stateMutability": "view",
      "type": "function",
      "signature": "0x43ae80d3"
    },
    {
      "constant": false,
      "inputs": [
        {
          "name": "petId",
          "type": "uint256"
        }
      ],
      "name": "adopt",
      "outputs": [
        {
          "name": "",
          "type": "uint256"
        }
      ],
      "payable": false,
      "stateMutability": "nonpayable",
      "type": "function",
      "signature": "0x8588b2c5"
    },
    {
      "constant": false,
      "inputs": [
        {
          "name": "petId",
          "type": "uint256"
        },
        {
          "name": "picture",
          "type": "string"
        },
        {
          "name": "name",
          "type": "string"
        },
        {
          "name": "age",
          "type": "uint8"
        },
        {
          "name": "breed",
          "type": "string"
        },
        {
          "name": "location",
          "type": "string"
        }
      ],
      "name": "registerPet",
      "outputs": [
        {
          "name": "",
          "type": "uint256"
        }
      ],
      "payable": false,
      "stateMutability": "nonpayable",
      "type": "function",
      "signature": "0x2be2141b"
    },
    {
      "constant": false,
      "inputs": [
        {
          "name": "petId",
          "type": "uint256"
        },
        {
          "name": "url",
          "type": "string"
        }
      ],
      "name": "updatePicture",
      "outputs": [
        {
          "name": "",
          "type": "string"
        }
      ],
      "payable": false,
      "stateMutability": "nonpayable",
      "type": "function",
      "signature": "0x1d814945"
    },
    {
      "constant": false,
      "inputs": [
        {
          "name": "petId",
          "type": "uint256"
        },
        {
          "name": "newName",
          "type": "string"
        }
      ],
      "name": "updateName",
      "outputs": [
        {
          "name": "",
          "type": "string"
        }
      ],
      "payable": false,
      "stateMutability": "nonpayable",
      "type": "function",
      "signature": "0x53e76f2c"
    },
    {
      "constant": false,
      "inputs": [
        {
          "name": "petId",
          "type": "uint256"
        },
        {
          "name": "newAge",
          "type": "uint8"
        }
      ],
      "name": "updateAge",
      "outputs": [
        {
          "name": "",
          "type": "uint8"
        }
      ],
      "payable": false,
      "stateMutability": "nonpayable",
      "type": "function",
      "signature": "0xa677104c"
    },
    {
      "constant": false,
      "inputs": [
        {
          "name": "petId",
          "type": "uint256"
        },
        {
          "name": "newLocation",
          "type": "string"
        }
      ],
      "name": "updateLocation",
      "outputs": [
        {
          "name": "",
          "type": "string"
        }
      ],
      "payable": false,
      "stateMutability": "nonpayable",
      "type": "function",
      "signature": "0x4ec0c9e9"
    }
  ],
  "bytecode": "0x608060405234801561001057600080fd5b506117e7806100206000396000f3fe6080604052600436106100a4576000357c0100000000000000000000000000000000000000000000000000000000900463ffffffff1680631d814945146100a957806329507f73146101f45780632be2141b1461028f5780633a497fdb146105475780633de4eb171461074c57806343ae80d31461079f5780634ec0c9e91461081a57806353e76f2c146109655780638588b2c514610ab0578063a677104c14610aff575b600080fd5b3480156100b557600080fd5b50610179600480360360408110156100cc57600080fd5b8101908080359060200190929190803590602001906401000000008111156100f357600080fd5b82018360208201111561010557600080fd5b8035906020019184600183028401116401000000008311171561012757600080fd5b91908080601f016020809104026020016040519081016040528093929190818152602001838380828437600081840152601f19601f820116905080830192505050505050509192919290505050610b61565b6040518080602001828103825283818151815260200191508051906020019080838360005b838110156101b957808201518184015260208101905061019e565b50505050905090810190601f1680156101e65780820380516001836020036101000a031916815260200191505b509250505060405180910390f35b34801561020057600080fd5b5061024d6004803603604081101561021757600080fd5b8101908080359060200190929190803573ffffffffffffffffffffffffffffffffffffffff169060200190929190505050610cce565b604051808273ffffffffffffffffffffffffffffffffffffffff1673ffffffffffffffffffffffffffffffffffffffff16815260200191505060405180910390f35b34801561029b57600080fd5b50610531600480360360c08110156102b257600080fd5b8101908080359060200190929190803590602001906401000000008111156102d957600080fd5b8201836020820111156102eb57600080fd5b8035906020019184600183028401116401000000008311171561030d57600080fd5b91908080601f016020809104026020016040519081016040528093929190818152602001838380828437600081840152601f19601f8201169050808301925050505050505091929192908035906020019064010000000081111561037057600080fd5b82018360208201111561038257600080fd5b803590602001918460018302840111640100000000831117156103a457600080fd5b91908080601f016020809104026020016040519081016040528093929190818152602001838380828437600081840152601f19601f820116905080830192505050505050509192919290803560ff1690602001909291908035906020019064010000000081111561041457600080fd5b82018360208201111561042657600080fd5b8035906020019184600183028401116401000000008311171561044857600080fd5b91908080601f016020809104026020016040519081016040528093929190818152602001838380828437600081840152601f19601f820116905080830192505050505050509192919290803590602001906401000000008111156104ab57600080fd5b8201836020820111156104bd57600080fd5b803590602001918460018302840111640100000000831117156104df57600080fd5b91908080601f016020809104026020016040519081016040528093929190818152602001838380828437600081840152601f19601f820116905080830192505050505050509192919290505050610dde565b6040518082815260200191505060405180910390f35b34801561055357600080fd5b506105806004803603602081101561056a57600080fd5b8101908080359060200190929190505050610edf565b6040518080602001806020018660ff1660ff168152602001806020018060200185810385528a818151815260200191508051906020019080838360005b838110156105d85780820151818401526020810190506105bd565b50505050905090810190601f1680156106055780820380516001836020036101000a031916815260200191505b50858103845289818151815260200191508051906020019080838360005b8381101561063e578082015181840152602081019050610623565b50505050905090810190601f16801561066b5780820380516001836020036101000a031916815260200191505b50858103835287818151815260200191508051906020019080838360005b838110156106a4578082015181840152602081019050610689565b50505050905090810190601f1680156106d15780820380516001836020036101000a031916815260200191505b50858103825286818151815260200191508051906020019080838360005b8381101561070a5780820151818401526020810190506106ef565b50505050905090810190601f1680156107375780820380516001836020036101000a031916815260200191505b50995050505050505050505060405180910390f35b34801561075857600080fd5b50610761611187565b6040518082601060200280838360005b8381101561078c578082015181840152602081019050610771565b5050505090500191505060405180910390f35b3480156107ab57600080fd5b506107d8600480360360208110156107c257600080fd5b8101908080359060200190929190505050611208565b604051808273ffffffffffffffffffffffffffffffffffffffff1673ffffffffffffffffffffffffffffffffffffffff16815260200191505060405180910390f35b34801561082657600080fd5b506108ea6004803603604081101561083d57600080fd5b81019080803590602001909291908035906020019064010000000081111561086457600080fd5b82018360208201111561087657600080fd5b8035906020019184600183028401116401000000008311171561089857600080fd5b91908080601f016020809104026020016040519081016040528093929190818152602001838380828437600081840152601f19601f82011690508083019250505050505050919291929050505061123d565b6040518080602001828103825283818151815260200191508051906020019080838360005b8381101561092a57808201518184015260208101905061090f565b50505050905090810190601f1680156109575780820380516001836020036101000a031916815260200191505b509250505060405180910390f35b34801561097157600080fd5b50610a356004803603604081101561098857600080fd5b8101908080359060200190929190803590602001906401000000008111156109af57600080fd5b8201836020820111156109c157600080fd5b803590602001918460018302840111640100000000831117156109e357600080fd5b91908080601f016020809104026020016040519081016040528093929190818152602001838380828437600081840152601f19601f8201169050808301925050505050505091929192905050506113aa565b6040518080602001828103825283818151815260200191508051906020019080838360005b83811015610a75578082015181840152602081019050610a5a565b50505050905090810190601f168015610aa25780820380516001836020036101000a031916815260200191505b509250505060405180910390f35b348015610abc57600080fd5b50610ae960048036036020811015610ad357600080fd5b8101908080359060200190929190505050611517565b6040518082815260200191505060405180910390f35b348015610b0b57600080fd5b50610b4560048036036040811015610b2257600080fd5b8101908080359060200190929190803560ff16906020019092919050505061158c565b604051808260ff1660ff16815260200191505060405180910390f35b60608260008110158015610b765750600f8111155b1515610b8157600080fd5b3373ffffffffffffffffffffffffffffffffffffffff16600082601081101515610ba757fe5b0160009054906101000a900473ffffffffffffffffffffffffffffffffffffffff1673ffffffffffffffffffffffffffffffffffffffff16141515610beb57600080fd5b82601085601081101515610bfb57fe5b600502016000019080519060200190610c15929190611672565b50601084601081101515610c2557fe5b600502016000018054600181600116156101000203166002900480601f016020809104026020016040519081016040528092919081815260200182805460018160011615610100020316600290048015610cc05780601f10610c9557610100808354040283529160200191610cc0565b820191906000526020600020905b815481529060010190602001808311610ca357829003601f168201915b505050505091505092915050565b6000808310158015610ce15750600f8311155b1515610cec57600080fd5b3373ffffffffffffffffffffffffffffffffffffffff16600084601081101515610d1257fe5b0160009054906101000a900473ffffffffffffffffffffffffffffffffffffffff1673ffffffffffffffffffffffffffffffffffffffff16141515610d5657600080fd5b81600084601081101515610d6657fe5b0160006101000a81548173ffffffffffffffffffffffffffffffffffffffff021916908373ffffffffffffffffffffffffffffffffffffffff160217905550600083601081101515610db457fe5b0160009054906101000a900473ffffffffffffffffffffffffffffffffffffffff16905092915050565b6000808710158015610df15750600f8711155b1515610dfc57600080fd5b60a0604051908101604052808781526020018681526020018560ff16815260200184815260200183815250601088601081101515610e3657fe5b600502016000820151816000019080519060200190610e569291906116f2565b506020820151816001019080519060200190610e739291906116f2565b5060408201518160020160006101000a81548160ff021916908360ff1602179055506060820151816003019080519060200190610eb19291906116f2565b506080820151816004019080519060200190610ece9291906116f2565b509050508690509695505050505050565b601081601081101515610eee57fe5b60050201600091509050806000018054600181600116156101000203166002900480601f016020809104026020016040519081016040528092919081815260200182805460018160011615610100020316600290048015610f905780601f10610f6557610100808354040283529160200191610f90565b820191906000526020600020905b815481529060010190602001808311610f7357829003601f168201915b505050505090806001018054600181600116156101000203166002900480601f01602080910402602001604051908101604052809291908181526020018280546001816001161561010002031660029004801561102e5780601f106110035761010080835404028352916020019161102e565b820191906000526020600020905b81548152906001019060200180831161101157829003601f168201915b5050505050908060020160009054906101000a900460ff1690806003018054600181600116156101000203166002900480601f0160208091040260200160405190810160405280929190818152602001828054600181600116156101000203166002900480156110df5780601f106110b4576101008083540402835291602001916110df565b820191906000526020600020905b8154815290600101906020018083116110c257829003601f168201915b505050505090806004018054600181600116156101000203166002900480601f01602080910402602001604051908101604052809291908181526020018280546001816001161561010002031660029004801561117d5780601f106111525761010080835404028352916020019161117d565b820191906000526020600020905b81548152906001019060200180831161116057829003601f168201915b5050505050905085565b61118f611772565b60006010806020026040519081016040528092919082601080156111fe576020028201915b8160009054906101000a900473ffffffffffffffffffffffffffffffffffffffff1673ffffffffffffffffffffffffffffffffffffffff16815260200190600101908083116111b4575b5050505050905090565b60008160108110151561121757fe5b016000915054906101000a900473ffffffffffffffffffffffffffffffffffffffff1681565b606082600081101580156112525750600f8111155b151561125d57600080fd5b3373ffffffffffffffffffffffffffffffffffffffff1660008260108110151561128357fe5b0160009054906101000a900473ffffffffffffffffffffffffffffffffffffffff1673ffffffffffffffffffffffffffffffffffffffff161415156112c757600080fd5b826010856010811015156112d757fe5b6005020160040190805190602001906112f1929190611672565b5060108460108110151561130157fe5b600502016004018054600181600116156101000203166002900480601f01602080910402602001604051908101604052809291908181526020018280546001816001161561010002031660029004801561139c5780601f106113715761010080835404028352916020019161139c565b820191906000526020600020905b81548152906001019060200180831161137f57829003601f168201915b505050505091505092915050565b606082600081101580156113bf5750600f8111155b15156113ca57600080fd5b3373ffffffffffffffffffffffffffffffffffffffff166000826010811015156113f057fe5b0160009054906101000a900473ffffffffffffffffffffffffffffffffffffffff1673ffffffffffffffffffffffffffffffffffffffff1614151561143457600080fd5b8260108560108110151561144457fe5b60050201600101908051906020019061145e929190611672565b5060108460108110151561146e57fe5b600502016001018054600181600116156101000203166002900480601f0160208091040260200160405190810160405280929190818152602001828054600181600116156101000203166002900480156115095780601f106114de57610100808354040283529160200191611509565b820191906000526020600020905b8154815290600101906020018083116114ec57829003601f168201915b505050505091505092915050565b600080821015801561152a5750600f8211155b151561153557600080fd5b3360008360108110151561154557fe5b0160006101000a81548173ffffffffffffffffffffffffffffffffffffffff021916908373ffffffffffffffffffffffffffffffffffffffff160217905550819050919050565b600082600081101580156115a15750600f8111155b15156115ac57600080fd5b3373ffffffffffffffffffffffffffffffffffffffff166000826010811015156115d257fe5b0160009054906101000a900473ffffffffffffffffffffffffffffffffffffffff1673ffffffffffffffffffffffffffffffffffffffff1614151561161657600080fd5b8260108560108110151561162657fe5b6005020160020160006101000a81548160ff021916908360ff16021790555060108460108110151561165457fe5b6005020160020160009054906101000a900460ff1691505092915050565b828054600181600116156101000203166002900490600052602060002090601f016020900481019282601f106116b357805160ff19168380011785556116e1565b828001600101855582156116e1579182015b828111156116e05782518255916020019190600101906116c5565b5b5090506116ee9190611796565b5090565b828054600181600116156101000203166002900490600052602060002090601f016020900481019282601f1061173357805160ff1916838001178555611761565b82800160010185558215611761579182015b82811115611760578251825591602001919060010190611745565b5b50905061176e9190611796565b5090565b61020060405190810160405280601090602082028038833980820191505090505090565b6117b891905b808211156117b457600081600090555060010161179c565b5090565b9056fea165627a7a723058203566d0486586d63d382ead0e6ad4c9546daf3f92eb9ea2190ff170cc07dfb2d90029",
  "source": "pragma solidity ^0.5.0;\n\nimport './Adoption_F1.sol';\n\ncontract Adoption_F2 is Adoption_F1 {\n\n  struct petStruct {\n    string picture;\n    string name;\n    uint8 age;\n    string breed;\n    string location;\n  }\n\n  modifier onlyPetOwner(uint petId){\n    require(petId >= 0 && petId <= 15);\n    require(adopters[petId] == msg.sender);\n    _;\n  }\n\n  petStruct[16] public petInfo;\n\n  // Register a pet - store its info in the blockchain - while adopting\n  function registerPet(\n    uint petId,\n    string memory picture,\n    string memory name,\n    uint8 age,\n    string memory breed,\n    string memory location)\n    public returns (uint){\n\n    require(petId >= 0 && petId <= 15);\n    petInfo[petId] = petStruct(picture, name, age, breed, location);\n    return petId;\n  }\n\n  //Update image giving its url\n  function updatePicture(uint petId, string memory url) public onlyPetOwner(petId) returns (string memory){\n    petInfo[petId].picture = url;\n    return petInfo[petId].picture;\n  }\n\n  //Update name\n  function updateName(uint petId, string memory newName) public onlyPetOwner(petId) returns (string memory){\n    petInfo[petId].name = newName;\n    return petInfo[petId].name;\n  }\n\n  //Update age\n  function updateAge(uint petId, uint8 newAge) public onlyPetOwner(petId) returns (uint8){\n    petInfo[petId].age = newAge;\n    return petInfo[petId].age;\n  }\n\n  //Update image giving its url\n  function updateLocation(uint petId, string memory newLocation) public onlyPetOwner(petId) returns (string memory){\n    petInfo[petId].location = newLocation;\n    return petInfo[petId].location;\n  }\n\n}\n",
  "sourcePath": "/Users/bastienchevallier/Documents/UC Berkeley/03-Blockchain/03-Final test project/UpgradablePetShop/contracts/Adoption_F2.sol",
  "compiler": {
    "name": "solc",
    "version": "0.5.0+commit.1d4f565a.Emscripten.clang"
  },
  "schemaVersion": "3.0.6",
  "updatedAt": "2019-05-10T15:47:14.102Z",
  "devdoc": {
    "methods": {}
  },
  "userdoc": {
    "methods": {}
  }
}