{
  "contractName": "Adoption_F2",
  "abi": [
    {
      "constant": true,
      "inputs": [],
      "name": "getAdopters",
      "outputs": [
        {
          "name": "",
          "type": "address[16]"
        }
      ],
      "payable": false,
      "stateMutability": "view",
      "type": "function"
    },
    {
      "constant": true,
      "inputs": [
        {
          "name": "",
          "type": "uint256"
        }
      ],
      "name": "adopters",
      "outputs": [
        {
          "name": "owner",
          "type": "address"
        },
        {
          "name": "picture",
          "type": "string"
        },
        {
          "name": "name",
          "type": "string"
        },
        {
          "name": "age",
          "type": "uint8"
        },
        {
          "name": "breed",
          "type": "string"
        },
        {
          "name": "location",
          "type": "string"
        }
      ],
      "payable": false,
      "stateMutability": "view",
      "type": "function"
    },
    {
      "constant": false,
      "inputs": [
        {
          "name": "petId",
          "type": "uint256"
        }
      ],
      "name": "adopt",
      "outputs": [
        {
          "name": "",
          "type": "uint256"
        }
      ],
      "payable": false,
      "stateMutability": "nonpayable",
      "type": "function"
    },
    {
      "constant": false,
      "inputs": [
        {
          "name": "petId",
          "type": "uint256"
        },
        {
          "name": "picture",
          "type": "string"
        },
        {
          "name": "name",
          "type": "string"
        },
        {
          "name": "age",
          "type": "uint8"
        },
        {
          "name": "breed",
          "type": "string"
        },
        {
          "name": "location",
          "type": "string"
        }
      ],
      "name": "adopt",
      "outputs": [
        {
          "name": "",
          "type": "uint256"
        }
      ],
      "payable": false,
      "stateMutability": "nonpayable",
      "type": "function"
    },
    {
      "constant": false,
      "inputs": [
        {
          "name": "petId",
          "type": "uint256"
        },
        {
          "name": "dest",
          "type": "address"
        }
      ],
      "name": "transferOwnership",
      "outputs": [
        {
          "name": "",
          "type": "address"
        }
      ],
      "payable": false,
      "stateMutability": "nonpayable",
      "type": "function"
    },
    {
      "constant": false,
      "inputs": [
        {
          "name": "petId",
          "type": "uint256"
        },
        {
          "name": "url",
          "type": "string"
        }
      ],
      "name": "updatePicture",
      "outputs": [
        {
          "name": "",
          "type": "string"
        }
      ],
      "payable": false,
      "stateMutability": "nonpayable",
      "type": "function"
    },
    {
      "constant": false,
      "inputs": [
        {
          "name": "petId",
          "type": "uint256"
        },
        {
          "name": "newName",
          "type": "string"
        }
      ],
      "name": "updateName",
      "outputs": [
        {
          "name": "",
          "type": "string"
        }
      ],
      "payable": false,
      "stateMutability": "nonpayable",
      "type": "function"
    },
    {
      "constant": false,
      "inputs": [
        {
          "name": "petId",
          "type": "uint256"
        },
        {
          "name": "newAge",
          "type": "uint8"
        }
      ],
      "name": "updateAge",
      "outputs": [
        {
          "name": "",
          "type": "uint8"
        }
      ],
      "payable": false,
      "stateMutability": "nonpayable",
      "type": "function"
    },
    {
      "constant": false,
      "inputs": [
        {
          "name": "petId",
          "type": "uint256"
        },
        {
          "name": "newLocation",
          "type": "string"
        }
      ],
      "name": "updateLocation",
      "outputs": [
        {
          "name": "",
          "type": "string"
        }
      ],
      "payable": false,
      "stateMutability": "nonpayable",
      "type": "function"
    }
  ],
  "bytecode": "0x608060405234801561001057600080fd5b50611815806100206000396000f3fe608060405260043610610099576000357c0100000000000000000000000000000000000000000000000000000000900463ffffffff1680631d8149451461009e57806329507f73146101e95780633de4eb171461028457806343ae80d3146102d75780634ec0c9e91461050f57806353e76f2c1461065a5780638588b2c5146107a5578063a677104c146107f4578063e0cf002b14610856575b600080fd5b3480156100aa57600080fd5b5061016e600480360360408110156100c157600080fd5b8101908080359060200190929190803590602001906401000000008111156100e857600080fd5b8201836020820111156100fa57600080fd5b8035906020019184600183028401116401000000008311171561011c57600080fd5b91908080601f016020809104026020016040519081016040528093929190818152602001838380828437600081840152601f19601f820116905080830192505050505050509192919290505050610b0e565b6040518080602001828103825283818151815260200191508051906020019080838360005b838110156101ae578082015181840152602081019050610193565b50505050905090810190601f1680156101db5780820380516001836020036101000a031916815260200191505b509250505060405180910390f35b3480156101f557600080fd5b506102426004803603604081101561020c57600080fd5b8101908080359060200190929190803573ffffffffffffffffffffffffffffffffffffffff169060200190929190505050610c81565b604051808273ffffffffffffffffffffffffffffffffffffffff1673ffffffffffffffffffffffffffffffffffffffff16815260200191505060405180910390f35b34801561029057600080fd5b50610299610da6565b6040518082601060200280838360005b838110156102c45780820151818401526020810190506102a9565b5050505090500191505060405180910390f35b3480156102e357600080fd5b50610310600480360360208110156102fa57600080fd5b8101908080359060200190929190505050610e27565b604051808773ffffffffffffffffffffffffffffffffffffffff1673ffffffffffffffffffffffffffffffffffffffff16815260200180602001806020018660ff1660ff168152602001806020018060200185810385528a818151815260200191508051906020019080838360005b8381101561039a57808201518184015260208101905061037f565b50505050905090810190601f1680156103c75780820380516001836020036101000a031916815260200191505b50858103845289818151815260200191508051906020019080838360005b838110156104005780820151818401526020810190506103e5565b50505050905090810190601f16801561042d5780820380516001836020036101000a031916815260200191505b50858103835287818151815260200191508051906020019080838360005b8381101561046657808201518184015260208101905061044b565b50505050905090810190601f1680156104935780820380516001836020036101000a031916815260200191505b50858103825286818151815260200191508051906020019080838360005b838110156104cc5780820151818401526020810190506104b1565b50505050905090810190601f1680156104f95780820380516001836020036101000a031916815260200191505b509a505050505050505050505060405180910390f35b34801561051b57600080fd5b506105df6004803603604081101561053257600080fd5b81019080803590602001909291908035906020019064010000000081111561055957600080fd5b82018360208201111561056b57600080fd5b8035906020019184600183028401116401000000008311171561058d57600080fd5b91908080601f016020809104026020016040519081016040528093929190818152602001838380828437600081840152601f19601f8201169050808301925050505050505091929192905050506110f5565b6040518080602001828103825283818151815260200191508051906020019080838360005b8381101561061f578082015181840152602081019050610604565b50505050905090810190601f16801561064c5780820380516001836020036101000a031916815260200191505b509250505060405180910390f35b34801561066657600080fd5b5061072a6004803603604081101561067d57600080fd5b8101908080359060200190929190803590602001906401000000008111156106a457600080fd5b8201836020820111156106b657600080fd5b803590602001918460018302840111640100000000831117156106d857600080fd5b91908080601f016020809104026020016040519081016040528093929190818152602001838380828437600081840152601f19601f820116905080830192505050505050509192919290505050611268565b6040518080602001828103825283818151815260200191508051906020019080838360005b8381101561076a57808201518184015260208101905061074f565b50505050905090810190601f1680156107975780820380516001836020036101000a031916815260200191505b509250505060405180910390f35b3480156107b157600080fd5b506107de600480360360208110156107c857600080fd5b81019080803590602001909291905050506113db565b6040518082815260200191505060405180910390f35b34801561080057600080fd5b5061083a6004803603604081101561081757600080fd5b8101908080359060200190929190803560ff169060200190929190505050611450565b604051808260ff1660ff16815260200191505060405180910390f35b34801561086257600080fd5b50610af8600480360360c081101561087957600080fd5b8101908080359060200190929190803590602001906401000000008111156108a057600080fd5b8201836020820111156108b257600080fd5b803590602001918460018302840111640100000000831117156108d457600080fd5b91908080601f016020809104026020016040519081016040528093929190818152602001838380828437600081840152601f19601f8201169050808301925050505050505091929192908035906020019064010000000081111561093757600080fd5b82018360208201111561094957600080fd5b8035906020019184600183028401116401000000008311171561096b57600080fd5b91908080601f016020809104026020016040519081016040528093929190818152602001838380828437600081840152601f19601f820116905080830192505050505050509192919290803560ff169060200190929190803590602001906401000000008111156109db57600080fd5b8201836020820111156109ed57600080fd5b80359060200191846001830284011164010000000083111715610a0f57600080fd5b91908080601f016020809104026020016040519081016040528093929190818152602001838380828437600081840152601f19601f82011690508083019250505050505050919291929080359060200190640100000000811115610a7257600080fd5b820183602082011115610a8457600080fd5b80359060200191846001830284011164010000000083111715610aa657600080fd5b91908080601f016020809104026020016040519081016040528093929190818152602001838380828437600081840152601f19601f82011690508083019250505050505050919291929050505061153c565b6040518082815260200191505060405180910390f35b60608260008110158015610b235750600f8111155b1515610b2e57600080fd5b3373ffffffffffffffffffffffffffffffffffffffff16601082601081101515610b5457fe5b6006020160000160009054906101000a900473ffffffffffffffffffffffffffffffffffffffff1673ffffffffffffffffffffffffffffffffffffffff16141515610b9e57600080fd5b82601085601081101515610bae57fe5b600602016001019080519060200190610bc89291906116a0565b50601084601081101515610bd857fe5b600602016001018054600181600116156101000203166002900480601f016020809104026020016040519081016040528092919081815260200182805460018160011615610100020316600290048015610c735780601f10610c4857610100808354040283529160200191610c73565b820191906000526020600020905b815481529060010190602001808311610c5657829003601f168201915b505050505091505092915050565b60008260008110158015610c965750600f8111155b1515610ca157600080fd5b3373ffffffffffffffffffffffffffffffffffffffff16601082601081101515610cc757fe5b6006020160000160009054906101000a900473ffffffffffffffffffffffffffffffffffffffff1673ffffffffffffffffffffffffffffffffffffffff16141515610d1157600080fd5b82601085601081101515610d2157fe5b6006020160000160006101000a81548173ffffffffffffffffffffffffffffffffffffffff021916908373ffffffffffffffffffffffffffffffffffffffff160217905550601084601081101515610d7557fe5b6006020160000160009054906101000a900473ffffffffffffffffffffffffffffffffffffffff1691505092915050565b610dae611720565b6000601080602002604051908101604052809291908260108015610e1d576020028201915b8160009054906101000a900473ffffffffffffffffffffffffffffffffffffffff1673ffffffffffffffffffffffffffffffffffffffff1681526020019060010190808311610dd3575b5050505050905090565b601081601081101515610e3657fe5b600602016000915090508060000160009054906101000a900473ffffffffffffffffffffffffffffffffffffffff1690806001018054600181600116156101000203166002900480601f016020809104026020016040519081016040528092919081815260200182805460018160011615610100020316600290048015610efe5780601f10610ed357610100808354040283529160200191610efe565b820191906000526020600020905b815481529060010190602001808311610ee157829003601f168201915b505050505090806002018054600181600116156101000203166002900480601f016020809104026020016040519081016040528092919081815260200182805460018160011615610100020316600290048015610f9c5780601f10610f7157610100808354040283529160200191610f9c565b820191906000526020600020905b815481529060010190602001808311610f7f57829003601f168201915b5050505050908060030160009054906101000a900460ff1690806004018054600181600116156101000203166002900480601f01602080910402602001604051908101604052809291908181526020018280546001816001161561010002031660029004801561104d5780601f106110225761010080835404028352916020019161104d565b820191906000526020600020905b81548152906001019060200180831161103057829003601f168201915b505050505090806005018054600181600116156101000203166002900480601f0160208091040260200160405190810160405280929190818152602001828054600181600116156101000203166002900480156110eb5780601f106110c0576101008083540402835291602001916110eb565b820191906000526020600020905b8154815290600101906020018083116110ce57829003601f168201915b5050505050905086565b6060826000811015801561110a5750600f8111155b151561111557600080fd5b3373ffffffffffffffffffffffffffffffffffffffff1660108260108110151561113b57fe5b6006020160000160009054906101000a900473ffffffffffffffffffffffffffffffffffffffff1673ffffffffffffffffffffffffffffffffffffffff1614151561118557600080fd5b8260108560108110151561119557fe5b6006020160050190805190602001906111af9291906116a0565b506010846010811015156111bf57fe5b600602016005018054600181600116156101000203166002900480601f01602080910402602001604051908101604052809291908181526020018280546001816001161561010002031660029004801561125a5780601f1061122f5761010080835404028352916020019161125a565b820191906000526020600020905b81548152906001019060200180831161123d57829003601f168201915b505050505091505092915050565b6060826000811015801561127d5750600f8111155b151561128857600080fd5b3373ffffffffffffffffffffffffffffffffffffffff166010826010811015156112ae57fe5b6006020160000160009054906101000a900473ffffffffffffffffffffffffffffffffffffffff1673ffffffffffffffffffffffffffffffffffffffff161415156112f857600080fd5b8260108560108110151561130857fe5b6006020160020190805190602001906113229291906116a0565b5060108460108110151561133257fe5b600602016002018054600181600116156101000203166002900480601f0160208091040260200160405190810160405280929190818152602001828054600181600116156101000203166002900480156113cd5780601f106113a2576101008083540402835291602001916113cd565b820191906000526020600020905b8154815290600101906020018083116113b057829003601f168201915b505050505091505092915050565b60008082101580156113ee5750600f8211155b15156113f957600080fd5b3360008360108110151561140957fe5b0160006101000a81548173ffffffffffffffffffffffffffffffffffffffff021916908373ffffffffffffffffffffffffffffffffffffffff160217905550819050919050565b600082600081101580156114655750600f8111155b151561147057600080fd5b3373ffffffffffffffffffffffffffffffffffffffff1660108260108110151561149657fe5b6006020160000160009054906101000a900473ffffffffffffffffffffffffffffffffffffffff1673ffffffffffffffffffffffffffffffffffffffff161415156114e057600080fd5b826010856010811015156114f057fe5b6006020160030160006101000a81548160ff021916908360ff16021790555060108460108110151561151e57fe5b6006020160030160009054906101000a900460ff1691505092915050565b600080871015801561154f5750600f8711155b151561155a57600080fd5b60c0604051908101604052803373ffffffffffffffffffffffffffffffffffffffff1681526020018781526020018681526020018560ff168152602001848152602001838152506010886010811015156115b057fe5b6006020160008201518160000160006101000a81548173ffffffffffffffffffffffffffffffffffffffff021916908373ffffffffffffffffffffffffffffffffffffffff1602179055506020820151816001019080519060200190611617929190611744565b506040820151816002019080519060200190611634929190611744565b5060608201518160030160006101000a81548160ff021916908360ff1602179055506080820151816004019080519060200190611672929190611744565b5060a082015181600501908051906020019061168f929190611744565b509050508690509695505050505050565b828054600181600116156101000203166002900490600052602060002090601f016020900481019282601f106116e157805160ff191683800117855561170f565b8280016001018555821561170f579182015b8281111561170e5782518255916020019190600101906116f3565b5b50905061171c91906117c4565b5090565b61020060405190810160405280601090602082028038833980820191505090505090565b828054600181600116156101000203166002900490600052602060002090601f016020900481019282601f1061178557805160ff19168380011785556117b3565b828001600101855582156117b3579182015b828111156117b2578251825591602001919060010190611797565b5b5090506117c091906117c4565b5090565b6117e691905b808211156117e25760008160009055506001016117ca565b5090565b9056fea165627a7a72305820622bbaf89d304ec1ef63160a23c3993c64cc3584b6ad6ae207740e0aa40ca9800029",
  "source": "pragma solidity ^0.5.0;\n\nimport './Adoption_F1.sol';\n\ncontract Adoption_F2 is Adoption_F1 {\n\n  struct petInfo {\n    address owner;\n    string picture;\n    string name;\n    uint8 age;\n    string breed;\n    string location;\n  }\n\n  modifier onlyPetOwner(uint petId){\n    require(petId >= 0 && petId <= 15);\n    require(adopters[petId].owner == msg.sender);\n    _;\n  }\n\n  petInfo[16] public adopters;\n\n  // Adopting a pet\n  function adopt(\n    uint petId,\n    string memory picture,\n    string memory name,\n    uint8 age,\n    string memory breed,\n    string memory location)\n    public returns (uint){\n\n    require(petId >= 0 && petId <= 15);\n    adopters[petId] = petInfo(msg.sender, picture, name, age, breed, location);\n\n    return petId;\n  }\n\n\t// Transfer ownership of an adopted pet\n\tfunction transferOwnership(uint petId, address dest) public onlyPetOwner(petId) returns (address) {\n\t\tadopters[petId].owner = dest;\n\t\treturn adopters[petId].owner;\n\t}\n\n  //Update image giving its url\n  function updatePicture(uint petId, string memory url) public onlyPetOwner(petId) returns (string memory){\n    adopters[petId].picture = url;\n    return adopters[petId].picture;\n  }\n\n  //Update name\n  function updateName(uint petId, string memory newName) public onlyPetOwner(petId) returns (string memory){\n    adopters[petId].name = newName;\n    return adopters[petId].name;\n  }\n\n  //Update age\n  function updateAge(uint petId, uint8 newAge) public onlyPetOwner(petId) returns (uint8){\n    adopters[petId].age = newAge;\n    return adopters[petId].age;\n  }\n\n  //Update image giving its url\n  function updateLocation(uint petId, string memory newLocation) public onlyPetOwner(petId) returns (string memory){\n    adopters[petId].location = newLocation;\n    return adopters[petId].location;\n  }\n\n}\n",
  "sourcePath": "/Users/bastienchevallier/Documents/UC Berkeley/03-Blockchain/03-Final test project/UpgradablePetShop/contracts/Adoption_F2.sol",
  "compiler": {
    "name": "solc",
    "version": "0.5.0+commit.1d4f565a.Emscripten.clang"
  },
  "schemaVersion": "3.0.6",
  "updatedAt": "2019-05-06T18:05:57.802Z",
  "devdoc": {
    "methods": {}
  },
  "userdoc": {
    "methods": {}
  }
}