{
  "contractName": "Adopters",
  "abi": [
    {
      "constant": true,
      "inputs": [
        {
          "name": "",
          "type": "uint256"
        }
      ],
      "name": "_adopters",
      "outputs": [
        {
          "name": "",
          "type": "address"
        }
      ],
      "payable": false,
      "stateMutability": "view",
      "type": "function",
      "signature": "0xc5c9c5c3"
    }
  ],
  "bytecode": "0x608060405234801561001057600080fd5b5061011b806100206000396000f3fe608060405260043610603f576000357c0100000000000000000000000000000000000000000000000000000000900463ffffffff168063c5c9c5c3146044575b600080fd5b348015604f57600080fd5b50607960048036036020811015606457600080fd5b810190808035906020019092919050505060bb565b604051808273ffffffffffffffffffffffffffffffffffffffff1673ffffffffffffffffffffffffffffffffffffffff16815260200191505060405180910390f35b60008160108110151560c957fe5b016000915054906101000a900473ffffffffffffffffffffffffffffffffffffffff168156fea165627a7a723058202cd7c78b0f97b1f4b171f430152da40c9226267d2f09684412a5b6336f7987a40029",
  "source": "pragma solidity ^0.5.0;\n\ncontract Adopters {\n\taddress[16] public _adopters;\n}\n",
  "sourcePath": "/Users/bastienchevallier/Documents/UC Berkeley/03-Blockchain/03-Final test project/UpgradablePetShop/contracts/Adopters.sol",
  "compiler": {
    "name": "solc",
    "version": "0.5.0+commit.1d4f565a.Emscripten.clang"
  },
  "schemaVersion": "3.0.6",
  "updatedAt": "2019-05-06T16:14:18.975Z",
  "devdoc": {
    "methods": {}
  },
  "userdoc": {
    "methods": {}
  }
}