{
  "contractName": "Adoption_F1",
  "abi": [
    {
      "constant": true,
      "inputs": [],
      "name": "getAdopters",
      "outputs": [
        {
          "name": "",
          "type": "address[16]"
        }
      ],
      "payable": false,
      "stateMutability": "view",
      "type": "function"
    },
    {
      "constant": true,
      "inputs": [
        {
          "name": "",
          "type": "uint256"
        }
      ],
      "name": "adopters",
      "outputs": [
        {
          "name": "",
          "type": "address"
        }
      ],
      "payable": false,
      "stateMutability": "view",
      "type": "function"
    },
    {
      "constant": false,
      "inputs": [
        {
          "name": "petId",
          "type": "uint256"
        }
      ],
      "name": "adopt",
      "outputs": [
        {
          "name": "",
          "type": "uint256"
        }
      ],
      "payable": false,
      "stateMutability": "nonpayable",
      "type": "function"
    },
    {
      "constant": false,
      "inputs": [
        {
          "name": "petId",
          "type": "uint256"
        },
        {
          "name": "dest",
          "type": "address"
        }
      ],
      "name": "transferOwnership",
      "outputs": [
        {
          "name": "",
          "type": "address"
        }
      ],
      "payable": false,
      "stateMutability": "nonpayable",
      "type": "function"
    }
  ],
  "bytecode": "0x608060405234801561001057600080fd5b506104aa806100206000396000f3fe608060405260043610610062576000357c0100000000000000000000000000000000000000000000000000000000900463ffffffff16806329507f73146100675780633de4eb171461010257806343ae80d3146101555780638588b2c5146101d0575b600080fd5b34801561007357600080fd5b506100c06004803603604081101561008a57600080fd5b8101908080359060200190929190803573ffffffffffffffffffffffffffffffffffffffff16906020019092919050505061021f565b604051808273ffffffffffffffffffffffffffffffffffffffff1673ffffffffffffffffffffffffffffffffffffffff16815260200191505060405180910390f35b34801561010e57600080fd5b5061011761032f565b6040518082601060200280838360005b83811015610142578082015181840152602081019050610127565b5050505090500191505060405180910390f35b34801561016157600080fd5b5061018e6004803603602081101561017857600080fd5b81019080803590602001909291905050506103b0565b604051808273ffffffffffffffffffffffffffffffffffffffff1673ffffffffffffffffffffffffffffffffffffffff16815260200191505060405180910390f35b3480156101dc57600080fd5b50610209600480360360208110156101f357600080fd5b81019080803590602001909291905050506103e5565b6040518082815260200191505060405180910390f35b60008083101580156102325750600f8311155b151561023d57600080fd5b3373ffffffffffffffffffffffffffffffffffffffff1660008460108110151561026357fe5b0160009054906101000a900473ffffffffffffffffffffffffffffffffffffffff1673ffffffffffffffffffffffffffffffffffffffff161415156102a757600080fd5b816000846010811015156102b757fe5b0160006101000a81548173ffffffffffffffffffffffffffffffffffffffff021916908373ffffffffffffffffffffffffffffffffffffffff16021790555060008360108110151561030557fe5b0160009054906101000a900473ffffffffffffffffffffffffffffffffffffffff16905092915050565b61033761045a565b60006010806020026040519081016040528092919082601080156103a6576020028201915b8160009054906101000a900473ffffffffffffffffffffffffffffffffffffffff1673ffffffffffffffffffffffffffffffffffffffff168152602001906001019080831161035c575b5050505050905090565b6000816010811015156103bf57fe5b016000915054906101000a900473ffffffffffffffffffffffffffffffffffffffff1681565b60008082101580156103f85750600f8211155b151561040357600080fd5b3360008360108110151561041357fe5b0160006101000a81548173ffffffffffffffffffffffffffffffffffffffff021916908373ffffffffffffffffffffffffffffffffffffffff160217905550819050919050565b6102006040519081016040528060109060208202803883398082019150509050509056fea165627a7a723058205b97f750137d0b898036a7cd6d8b0bfe3db45eb2edeee76bfbf3acf5f6839b860029",
  "source": "pragma solidity ^0.5.0;\n\nimport './Adoption.sol';\n\ncontract Adoption_F1 is Adoption {\n\n\t// Transfer ownership of an adopted pet\n\tfunction transferOwnership(uint petId, address dest) public returns (address) {\n\t\trequire(petId >= 0 && petId <= 15);\n\t\trequire(adopters[petId] == msg.sender);\n\n\t\tadopters[petId] = dest;\n\n\t\treturn adopters[petId];\n\t}\n\n\n}\n",
  "sourcePath": "/Users/bastienchevallier/Documents/UC Berkeley/03-Blockchain/03-Final test project/UpgradablePetShop/contracts/Adoption_F1.sol",
  "compiler": {
    "name": "solc",
    "version": "0.5.0+commit.1d4f565a.Emscripten.clang"
  },
  "schemaVersion": "3.0.6",
  "updatedAt": "2019-05-12T14:28:04.994Z",
  "devdoc": {
    "methods": {}
  },
  "userdoc": {
    "methods": {}
  }
}