{
  "contractName": "Proxy",
  "abi": [
    {
      "constant": true,
      "inputs": [],
      "name": "_implementation",
      "outputs": [
        {
          "name": "",
          "type": "address"
        }
      ],
      "payable": false,
      "stateMutability": "view",
      "type": "function",
      "signature": "0x59679b0f"
    },
    {
      "constant": false,
      "inputs": [],
      "name": "renounceOwnership",
      "outputs": [],
      "payable": false,
      "stateMutability": "nonpayable",
      "type": "function",
      "signature": "0x715018a6"
    },
    {
      "constant": true,
      "inputs": [],
      "name": "owner",
      "outputs": [
        {
          "name": "",
          "type": "address"
        }
      ],
      "payable": false,
      "stateMutability": "view",
      "type": "function",
      "signature": "0x8da5cb5b"
    },
    {
      "constant": true,
      "inputs": [],
      "name": "isOwner",
      "outputs": [
        {
          "name": "",
          "type": "bool"
        }
      ],
      "payable": false,
      "stateMutability": "view",
      "type": "function",
      "signature": "0x8f32d59b"
    },
    {
      "constant": true,
      "inputs": [
        {
          "name": "",
          "type": "uint256"
        }
      ],
      "name": "_adopters",
      "outputs": [
        {
          "name": "",
          "type": "address"
        }
      ],
      "payable": false,
      "stateMutability": "view",
      "type": "function",
      "signature": "0xc5c9c5c3"
    },
    {
      "inputs": [
        {
          "name": "newOwner",
          "type": "address"
        }
      ],
      "payable": false,
      "stateMutability": "nonpayable",
      "type": "function",
      "constant": false,
      "name": "transferOwnership",
      "outputs": [],
      "signature": "0xf2fde38b"
    },
    {
      "payable": true,
      "stateMutability": "payable",
      "type": "fallback",
      "inputs": [
        {
          "name": "implementation",
          "type": "address",
          "indexed": true
        }
      ],
      "anonymous": false,
      "name": "Upgraded",
      "signature": "0xbc7cd75a20ee27fd9adebab32041f755214dbc6bffa90cc0225b39da2e5c2d3b"
    },
    {
      "anonymous": false,
      "inputs": [
        {
          "indexed": true,
          "name": "implementation",
          "type": "address"
        },
        {
          "indexed": true,
          "name": "newOwner",
          "type": "address"
        }
      ],
      "name": "Upgraded",
      "type": "event",
      "payable": true,
      "stateMutability": "payable",
      "signature": "0x5d611f318680d00598bb735d61bacf0c514c6b50e1e5ad30040a4df2b12791c7"
    },
    {
      "anonymous": false,
      "inputs": [
        {
          "indexed": true,
          "name": "previousOwner",
          "type": "address"
        },
        {
          "indexed": true,
          "name": "newOwner",
          "type": "address"
        }
      ],
      "name": "OwnershipTransferred",
      "type": "event",
      "constant": true,
      "outputs": [
        {
          "name": "",
          "type": "address"
        }
      ],
      "payable": false,
      "stateMutability": "view",
      "signature": "0x8be0079c531659141344cd1fd0a4f28419497f9722a3daafe3b4186f6b6457e0"
    },
    {
      "constant": true,
      "inputs": [
        {
          "indexed": true,
          "name": "impl",
          "type": "address"
        },
        {
          "indexed": true,
          "name": "newOwner",
          "type": "address"
        }
      ],
      "name": "implementation",
      "outputs": [
        {
          "name": "",
          "type": "address"
        }
      ],
      "payable": false,
      "stateMutability": "view",
      "type": "function",
      "anonymous": false,
      "signature": "0x5401224d"
    },
    {
      "constant": false,
      "inputs": [
        {
          "name": "impl",
          "type": "address"
        }
      ],
      "name": "upgradeTo",
      "outputs": [
        {
          "name": "",
          "type": "address"
        }
      ],
      "payable": false,
      "stateMutability": "nonpayable",
      "type": "function",
      "signature": "0x3659cfe6"
    },
    {
      "constant": false,
      "inputs": [
        {
          "name": "impl",
          "type": "address"
        }
      ],
      "name": "upgradeTo",
      "outputs": [],
      "payable": false,
      "stateMutability": "nonpayable",
      "type": "function",
      "signature": "0x3659cfe6"
    }
  ],
  "bytecode": "0x608060405233601060006101000a81548173ffffffffffffffffffffffffffffffffffffffff021916908373ffffffffffffffffffffffffffffffffffffffff160217905550601060009054906101000a900473ffffffffffffffffffffffffffffffffffffffff1673ffffffffffffffffffffffffffffffffffffffff16600073ffffffffffffffffffffffffffffffffffffffff167f8be0079c531659141344cd1fd0a4f28419497f9722a3daafe3b4186f6b6457e060405160405180910390a3610992806100d16000396000f3fe60806040526004361061008e576000357c0100000000000000000000000000000000000000000000000000000000900463ffffffff1680633659cfe61461014757806359679b0f146101985780635c60da1b146101ef578063715018a6146102465780638da5cb5b1461025d5780638f32d59b146102b4578063c5c9c5c3146102e3578063f2fde38b1461035e575b60006100986103af565b9050600073ffffffffffffffffffffffffffffffffffffffff168173ffffffffffffffffffffffffffffffffffffffff16141515156100d657600080fd5b60606000368080601f016020809104026020016040519081016040528093929190818152602001838380828437600081840152601f19601f82011690508083019250505050505050905060405136600082376000803683865af43d806000843e8160008114610143578184f35b8184fd5b34801561015357600080fd5b506101966004803603602081101561016a57600080fd5b81019080803573ffffffffffffffffffffffffffffffffffffffff1690602001909291905050506103d9565b005b3480156101a457600080fd5b506101ad610539565b604051808273ffffffffffffffffffffffffffffffffffffffff1673ffffffffffffffffffffffffffffffffffffffff16815260200191505060405180910390f35b3480156101fb57600080fd5b506102046103af565b604051808273ffffffffffffffffffffffffffffffffffffffff1673ffffffffffffffffffffffffffffffffffffffff16815260200191505060405180910390f35b34801561025257600080fd5b5061025b61055f565b005b34801561026957600080fd5b5061027261069c565b604051808273ffffffffffffffffffffffffffffffffffffffff1673ffffffffffffffffffffffffffffffffffffffff16815260200191505060405180910390f35b3480156102c057600080fd5b506102c96106c6565b604051808215151515815260200191505060405180910390f35b3480156102ef57600080fd5b5061031c6004803603602081101561030657600080fd5b810190808035906020019092919050505061071e565b604051808273ffffffffffffffffffffffffffffffffffffffff1673ffffffffffffffffffffffffffffffffffffffff16815260200191505060405180910390f35b34801561036a57600080fd5b506103ad6004803603602081101561038157600080fd5b81019080803573ffffffffffffffffffffffffffffffffffffffff169060200190929190505050610753565b005b6000601160009054906101000a900473ffffffffffffffffffffffffffffffffffffffff16905090565b6103e16106c6565b1515610455576040517f08c379a00000000000000000000000000000000000000000000000000000000081526004018080602001828103825260208152602001807f4f776e61626c653a2063616c6c6572206973206e6f7420746865206f776e657281525060200191505060405180910390fd5b8073ffffffffffffffffffffffffffffffffffffffff16601160009054906101000a900473ffffffffffffffffffffffffffffffffffffffff1673ffffffffffffffffffffffffffffffffffffffff16141515156104b257600080fd5b80601160006101000a81548173ffffffffffffffffffffffffffffffffffffffff021916908373ffffffffffffffffffffffffffffffffffffffff1602179055508073ffffffffffffffffffffffffffffffffffffffff167fbc7cd75a20ee27fd9adebab32041f755214dbc6bffa90cc0225b39da2e5c2d3b60405160405180910390a250565b601160009054906101000a900473ffffffffffffffffffffffffffffffffffffffff1681565b6105676106c6565b15156105db576040517f08c379a00000000000000000000000000000000000000000000000000000000081526004018080602001828103825260208152602001807f4f776e61626c653a2063616c6c6572206973206e6f7420746865206f776e657281525060200191505060405180910390fd5b600073ffffffffffffffffffffffffffffffffffffffff16601060009054906101000a900473ffffffffffffffffffffffffffffffffffffffff1673ffffffffffffffffffffffffffffffffffffffff167f8be0079c531659141344cd1fd0a4f28419497f9722a3daafe3b4186f6b6457e060405160405180910390a36000601060006101000a81548173ffffffffffffffffffffffffffffffffffffffff021916908373ffffffffffffffffffffffffffffffffffffffff160217905550565b6000601060009054906101000a900473ffffffffffffffffffffffffffffffffffffffff16905090565b6000601060009054906101000a900473ffffffffffffffffffffffffffffffffffffffff1673ffffffffffffffffffffffffffffffffffffffff163373ffffffffffffffffffffffffffffffffffffffff1614905090565b60008160108110151561072d57fe5b016000915054906101000a900473ffffffffffffffffffffffffffffffffffffffff1681565b61075b6106c6565b15156107cf576040517f08c379a00000000000000000000000000000000000000000000000000000000081526004018080602001828103825260208152602001807f4f776e61626c653a2063616c6c6572206973206e6f7420746865206f776e657281525060200191505060405180910390fd5b6107d8816107db565b50565b600073ffffffffffffffffffffffffffffffffffffffff168173ffffffffffffffffffffffffffffffffffffffff16141515156108a6576040517f08c379a00000000000000000000000000000000000000000000000000000000081526004018080602001828103825260268152602001807f4f776e61626c653a206e6577206f776e657220697320746865207a65726f206181526020017f646472657373000000000000000000000000000000000000000000000000000081525060400191505060405180910390fd5b8073ffffffffffffffffffffffffffffffffffffffff16601060009054906101000a900473ffffffffffffffffffffffffffffffffffffffff1673ffffffffffffffffffffffffffffffffffffffff167f8be0079c531659141344cd1fd0a4f28419497f9722a3daafe3b4186f6b6457e060405160405180910390a380601060006101000a81548173ffffffffffffffffffffffffffffffffffffffff021916908373ffffffffffffffffffffffffffffffffffffffff1602179055505056fea165627a7a723058202a0595987c062bf8f1dad6f0966cd13241084b42dbb03874f786622272cdb4060029",
  "source": "pragma solidity ^0.5.0;\n\nimport \"./Ownable.sol\";\nimport \"./Adopters.sol\";\n\ncontract Proxy is Adopters , Ownable {\n\n  event Upgraded(address indexed implementation);\n\n  address public _implementation;\n\n  function implementation() public view returns (address) {\n    return _implementation;\n  }\n\n  function upgradeTo(address impl) public onlyOwner {\n    require(_implementation != impl);\n    _implementation = impl;\n    emit Upgraded(impl);\n  }\n\n  function () payable external {\n    address _impl = implementation();\n    require(_impl != address(0));\n    bytes memory data = msg.data;\n\n    assembly {\n      let ptr := mload(0x40)\n      calldatacopy(ptr,0,calldatasize)\n      let result := delegatecall(gas, _impl, ptr, calldatasize, 0, 0)\n      let size := returndatasize\n      returndatacopy(ptr, 0, size)\n\n      switch result\n      case 0 { revert(ptr, size) }\n      default { return(ptr, size) }\n    }\n  }\n\n}\n",
  "sourcePath": "/Users/bastienchevallier/Documents/UC Berkeley/03-Blockchain/03-Final test project/UpgradablePetShop/contracts/Proxy.sol",
  "compiler": {
    "name": "solc",
    "version": "0.5.0+commit.1d4f565a.Emscripten.clang"
  },
  "schemaVersion": "3.0.6",
  "updatedAt": "2019-05-06T16:14:19.031Z",
  "devdoc": {
    "methods": {
      "isOwner()": {
        "return": "true if `msg.sender` is the owner of the contract."
      },
      "owner()": {
        "return": "the address of the owner."
      },
      "renounceOwnership()": {
        "details": "Allows the current owner to relinquish control of the contract. It will not be possible to call the functions with the `onlyOwner` modifier anymore."
      },
      "transferOwnership(address)": {
        "details": "Allows the current owner to transfer control of the contract to a newOwner.",
        "params": {
          "newOwner": "The address to transfer ownership to."
        }
      }
    }
  },
  "userdoc": {
    "methods": {
      "renounceOwnership()": {
        "notice": "Renouncing ownership will leave the contract without an owner, thereby removing any functionality that is only available to the owner."
      }
    }
  }
}