{
  "contractName": "UnstructuredProxy",
  "abi": [
    {
      "inputs": [],
      "payable": false,
      "stateMutability": "nonpayable",
      "type": "constructor",
      "signature": "constructor"
    },
    {
      "constant": false,
      "inputs": [
        {
          "name": "_newOwner",
          "type": "address"
        }
      ],
      "name": "transferProxyOwnership",
      "outputs": [],
      "payable": false,
      "stateMutability": "nonpayable",
      "type": "function",
      "signature": "0xf1739cae"
    },
    {
      "constant": false,
      "inputs": [
        {
          "name": "_implementation",
          "type": "address"
        }
      ],
      "name": "upgradeTo",
      "outputs": [],
      "payable": false,
      "stateMutability": "nonpayable",
      "type": "function",
      "signature": "0x3659cfe6"
    },
    {
      "constant": true,
      "inputs": [],
      "name": "implementation",
      "outputs": [
        {
          "name": "impl",
          "type": "address"
        }
      ],
      "payable": false,
      "stateMutability": "view",
      "type": "function",
      "signature": "0x5c60da1b"
    },
    {
      "constant": true,
      "inputs": [],
      "name": "proxyOwner",
      "outputs": [
        {
          "name": "owner",
          "type": "address"
        }
      ],
      "payable": false,
      "stateMutability": "view",
      "type": "function",
      "signature": "0x025313a2"
    }
  ],
  "bytecode": "0x608060405234801561001057600080fd5b506100293361002e640100000000026401000000009004565b61006f565b600060405180807f6f72672e676f76626c6f636b732e70726f78792e6f776e6572000000000000008152506019019050604051809103902090508181555050565b6104618061007e6000396000f3fe608060405260043610610062576000357c0100000000000000000000000000000000000000000000000000000000900463ffffffff168063025313a2146100675780633659cfe6146100be5780635c60da1b1461010f578063f1739cae14610166575b600080fd5b34801561007357600080fd5b5061007c6101b7565b604051808273ffffffffffffffffffffffffffffffffffffffff1673ffffffffffffffffffffffffffffffffffffffff16815260200191505060405180910390f35b3480156100ca57600080fd5b5061010d600480360360208110156100e157600080fd5b81019080803573ffffffffffffffffffffffffffffffffffffffff1690602001909291905050506101fa565b005b34801561011b57600080fd5b50610124610247565b604051808273ffffffffffffffffffffffffffffffffffffffff1673ffffffffffffffffffffffffffffffffffffffff16815260200191505060405180910390f35b34801561017257600080fd5b506101b56004803603602081101561018957600080fd5b81019080803573ffffffffffffffffffffffffffffffffffffffff1690602001909291905050506102b0565b005b60008060405180807f6f72672e676f76626c6f636b732e70726f78792e6f776e657200000000000000815250601901905060405180910390209050805491505090565b6102026101b7565b73ffffffffffffffffffffffffffffffffffffffff163373ffffffffffffffffffffffffffffffffffffffff1614151561023b57600080fd5b61024481610339565b50565b60008060405180807f6f72672e676f76626c6f636b732e696d706c656d656e746174696f6e2e61646481526020017f7265737300000000000000000000000000000000000000000000000000000000815250602401905060405180910390209050805491505090565b6102b86101b7565b73ffffffffffffffffffffffffffffffffffffffff163373ffffffffffffffffffffffffffffffffffffffff161415156102f157600080fd5b600073ffffffffffffffffffffffffffffffffffffffff168173ffffffffffffffffffffffffffffffffffffffff161415151561032d57600080fd5b6103368161038d565b50565b6000610343610247565b90508173ffffffffffffffffffffffffffffffffffffffff168173ffffffffffffffffffffffffffffffffffffffff161415151561038057600080fd5b610389826103ce565b5050565b600060405180807f6f72672e676f76626c6f636b732e70726f78792e6f776e6572000000000000008152506019019050604051809103902090508181555050565b600060405180807f6f72672e676f76626c6f636b732e696d706c656d656e746174696f6e2e61646481526020017f7265737300000000000000000000000000000000000000000000000000000000815250602401905060405180910390209050818155505056fea165627a7a723058202da47388d522fa11a5baeea5b7bf08e7350940572a8f752e4206879d7aaacb4f0029",
  "source": "pragma solidity ^0.5.0;\n\ncontract UnstructuredProxy {\n    \n    // Storage position of the address of the current implementation\n    bytes32 private constant implementationPosition = \n        keccak256(\"org.govblocks.implementation.address\");\n    \n    // Storage position of the owner of the contract\n    bytes32 private constant proxyOwnerPosition = \n        keccak256(\"org.govblocks.proxy.owner\");\n    \n    /**\n    * @dev Throws if called by any account other than the owner.\n    */\n    modifier onlyProxyOwner() {\n        require (msg.sender == proxyOwner());\n        _;\n    }\n    \n    /**\n    * @dev the constructor sets owner\n    */\n    constructor() public {\n        _setUpgradeabilityOwner(msg.sender);\n    }\n    \n    /**\n     * @dev Allows the current owner to transfer ownership\n     * @param _newOwner The address to transfer ownership to\n     */\n    function transferProxyOwnership(address _newOwner) \n        public onlyProxyOwner \n    {\n        require(_newOwner != address(0));\n        _setUpgradeabilityOwner(_newOwner);\n    }\n    \n    /**\n     * @dev Allows the proxy owner to upgrade the implementation\n     * @param _implementation address of the new implementation\n     */\n    function upgradeTo(address _implementation) \n        public onlyProxyOwner\n    {\n        _upgradeTo(_implementation);\n    }\n    \n    /**\n     * @dev Tells the address of the current implementation\n     * @return address of the current implementation\n     */\n    function implementation() public view returns (address impl) {\n        bytes32 position = implementationPosition;\n        assembly {\n            impl := sload(position)\n        }\n    }\n    \n    /**\n     * @dev Tells the address of the owner\n     * @return the address of the owner\n     */\n    function proxyOwner() public view returns (address owner) {\n        bytes32 position = proxyOwnerPosition;\n        assembly {\n            owner := sload(position)\n        }\n    }\n    \n    /**\n     * @dev Sets the address of the current implementation\n     * @param _newImplementation address of the new implementation\n     */\n    function _setImplementation(address _newImplementation) \n        internal \n    {\n        bytes32 position = implementationPosition;\n        assembly {\n            sstore(position, _newImplementation)\n        }\n    }\n    \n    /**\n     * @dev Upgrades the implementation address\n     * @param _newImplementation address of the new implementation\n     */\n    function _upgradeTo(address _newImplementation) internal {\n        address currentImplementation = implementation();\n        require(currentImplementation != _newImplementation);\n        _setImplementation(_newImplementation);\n    }\n    \n    /**\n     * @dev Sets the address of the owner\n     */\n    function _setUpgradeabilityOwner(address _newProxyOwner) \n        internal \n    {\n        bytes32 position = proxyOwnerPosition;\n        assembly {\n            sstore(position, _newProxyOwner)\n        }\n    }\n}\n",
  "sourcePath": "/Users/arnaud/Desktop/pet-shop-tutorial/contracts/UnstructuredProxy.sol",
  "compiler": {
    "name": "solc",
    "version": "0.5.0+commit.1d4f565a.Emscripten.clang"
  },
  "schemaVersion": "3.0.8",
  "updatedAt": "2019-04-30T18:50:43.464Z",
  "devdoc": {
    "methods": {
      "constructor": {
        "details": "the constructor sets owner"
      },
      "implementation()": {
        "details": "Tells the address of the current implementation",
        "return": "address of the current implementation"
      },
      "proxyOwner()": {
        "details": "Tells the address of the owner",
        "return": "the address of the owner"
      },
      "transferProxyOwnership(address)": {
        "details": "Allows the current owner to transfer ownership",
        "params": {
          "_newOwner": "The address to transfer ownership to"
        }
      },
      "upgradeTo(address)": {
        "details": "Allows the proxy owner to upgrade the implementation",
        "params": {
          "_implementation": "address of the new implementation"
        }
      }
    }
  },
  "userdoc": {
    "methods": {}
  }
}